:1000000019C033C032C031C030C02FC02EC02DC087
:100010002CC02BC02AC029C028C027C026C025C09C
:1000200024C023C022C021C020C01FC01EC01DC0CC
:100030001CC01BC011241FBECFEFD2E0DEBFCDBF5E
:1000400011E0A0E0B1E0E8E2F2E002C005900D921C
:10005000A436B107D9F721E0A4E6B1E001C01D92B2
:10006000A636B207E1F70BD0DDC0CACF14B88FEFC8
:1000700085B98AB1806C8AB98BB18BB90895F6DFE6
:1000800022D097D0C0E48BB18C278BB997D08093C6
:100090006401809164018F3F61F05E985F9A809166
:1000A0006401809164018A3018F4809164014DD01C
:1000B0005F982FE986E891E0215080409040E1F779
:1000C00000C00000E0CF8AB18C608AB98BB18BB9D7
:1000D0000895811101C08AE05A9AE3EDF0E3319767
:1000E000F1F700C00000982FE7E8F3E13197F1F74E
:1000F00000C000009150C1F78230B8F0EBE4FDE1A0
:100100003197F1F700C000005B9AEBE4FDE1319715
:10011000F1F700C000005B988150813079F78BE4E3
:100120009DE10197F1F700C000005B9AEBEAFDE06A
:100130003197F1F700C000005A988FE99FE00197CE
:10014000F1F700C000005B9808950F931F93CF93C1
:10015000DF9390E0EC01CC0FDD1F9C01220F331FD9
:10016000220F331F220F331FC20FD31FC050DF4F88
:1001700001968C01000F111F880F991F880F991F7E
:10018000880F991F080F191F00501F4F8991A1DF79
:100190002FE38DE093E0215080409040E1F700C0D4
:1001A0000000C017D10791F7DF91CF911F910F91F8
:1001B000089580EC84B98FEF85B908952E9883EF68
:1001C00091E00197F1F700C0000023B1822F8F73F7
:1001D0008F3329F190E08FEF20FF892F26959F5FC5
:1001E0009630D1F72E9A8F3F91F42F98000023B1CB
:1001F000822F8F738F3349F096E08FEF20FF892F86
:1002000026959F5F9C30D1F701C08FEF2F9A8930E0
:1002100021F08A3031F489E0089580E108952E9A22
:08022000E4CF0895F894FFCF2C
:100228000006020906090008040800060105070877
:10023800050203010006020903020106030800067D
:10024800020406070406020600070802070800055C
:100258000108000601000409070001000006090959
:10026800000508060106000609090301060106053E
:10027800000605010103010401000006060104054A
:040288000206080959
:00000001FF
